:10067300021B0000011F01011A01021D00E60118FF
:0B06830000011900011700C103C104B1
:10033E00120901120A28120A137B507A007D597C89
:10034E00007F231209D030010F1205E01209FD12B1
:10035E0008768E1B8F1CC201E580B41004D2048077
:10036E0008E58064106002C2043002077F031200A9
:10037E000380082002057F0312000EE570C4540F9F
:10038E0075F00AA4FFE570540F2FF518E571C454EB
:10039E000F75F00AA4FFE571540F2FF519E56FC420
:1003AE00540F75F00AA4FFE56F540F2FF517E56E85
:1003BE00B40C0FE4F56E051FE51FD39403400375CF
:1003CE001F01E56EB40D15E4F56EE51AB401057561
:1003DE001A028008E51AB40203751A01E51F6401BA
:1003EE00705BAE1BAF1CFC7D641202DBAA06AB0772
:1003FE00AE1BAF1C7C007D641202DB7E007F0ACF39
:10040E00CDCFCECCCE1202DBEF2420F514E43EF598
:10041E00138A118B12750D00750E10750F00751065
:10042E0010AE1BAF1C7C007D0A1202DB8C158D16E4
:10043E007B107A007D017C007F191209E7E51F64AD
:10044E00027078E570C4540F750D00F50EE570540A
:10045E000F750F00F510751100751211E571C4546A
:10046E000F751300F514E571540F751500F5167B15
:10047E00107A007D027C007F191209E7E56D641188
:10048E007039E571C4540F750D00F50EE571540FFA
:10049E00750F00F510751100751211E56FC4540F2C
:1004AE00751300F514E56F540F751500F5167B10D6
:1004BE007A007D027C007F191209E7E51F64036054
:1004CE0003020569E56EB4101FE4F56E740A251E6D
:1004DE00F51EE4351DF51DD3E51E94DEE51D9403D2
:1004EE004006751D00751E64E56EB41120E4F56EB0
:1004FE0074F6251EF51E74FF351DF51DC3E51E94FD
:10050E0064E51D94005006751D03751EDEAE1DAF0D
:10051E001E7C007D641202DBAA06AB07AE1DAF1E69
:10052E007C007D641202DB7E007F0ACFCDCFCECC65
:10053E00CE1202DB8E158F168A138B14750D007575
:10054E000E10750F007510107511007512107B10BE
:10055E007A007D037C007F191209E7E51A640170A9
:10056E0020D3E51C951EE51B951DE5A0541F44A048
:10057E004007F5A07580108005F5A0E4F58053A026
:10058E001FE51A64027036E5197006E5177002D27F
:10059E0003300013E5A0541F44A0F5A0758010533E
:1005AE00A01F7F01120003200013E5A0541F44A0DA
:1005BE00F5A0E4F58053A01F7F0112000EE51AB4DA
:1005CE0001087F021200030203547F0212000E0282
:0205DE000354C4
:0E068E00015CFF095DFEFDFBF7EFDFBF7F00A3
:10090100E5A0541F4480F5A07580FFE5A0541F4465
:10091100A0F5A0E4F580E5A0541F44C0F5A07580C2
:10092100FFE5A0541F44E0F5A07580FF53A01F22EE
:0F0A6400E5A0541F4480F5A0855C8053A01F229D
:08000300745C2FF8E6525C2248
:09000E00745C2FF8E6F4425C2258
:10069C0008541010101010101010202B213F065B66
:1006AC004F666D7D077F6F777C395E797100407680
:1006BC001E7038375C733E783D6750376EBF86DBF3
:1006CC00CFE6EDFD87FFEF46084C01020408102031
:0206DC0040805C
:100958007580FFE5A0541F44C0F5A0744B2FF8E63E
:10096800F580E5A0541F44E0F5A074212DF8E6F4C5
:06097800F58053A01F22D0
:1009E7008F548D558B56850E57851058851259850E
:0609F700145A85165B2274
:1006DE00016A00C1010268000002660000C100C18B
:0106EE000209
:100A1300538E7F5389F0758A78758CECC28DD28C96
:050A2300D2AFD2A922B0
:100A2800538EBF53890F758B18758DFCC28FD28E6C
:050A3800D2AFD2AB2299
:03000B00020817D1
:10081700C0E0C0F0C083C082C0D075D000C000C0A7
:1008270001C002C003C004C005C006C00730030FE3
:100837000569E56970020568D2007F01120003D3DC
:10084700E56994E8E5689403400AC2037568007592
:100857006900C200D007D006D005D004D003D0026B
:0F086700D001D000D0D0D082D083D0F0D0E032FA
:03001B0002079148
:10079100C0E0C0F0C083C082C0D075D000C000C02E
:1007A10001C002C003C004C005C006C007C20112D7
:1007B1000A64E56A04FF7454256AF8E6FD7C0012B8
:1007C1000958056AE56AC394084003756A00300454
:1007D100280567E56770020566C3940AE56694001B
:1007E1005004C2028013C3E567940AE56694004091
:1007F10008756600756700D202D201D007D006D015
:1008010005D004D003D002D001D000D0D0D082D006
:0608110083D0F0D0E032BC
:0C06EF00016E00016D00016B00016C0049
:1005E000E56B14601C14607724026003020672D26B
:1005F000B2D2B3C2B5C2B430B20320B375756B01C9
:1006000022D2B2D2B3C2B5C2B430B20320B34C20AE
:10061000B203756C0320B303756C04E56C24FC60B5
:100620001F04704EC2B2C2B3D2B5D2B420B50675A3
:100630006E0D756B0220B43A756E11756D118017D1
:10064000C2B2C2B3D2B5D2B420B506756E0C756B0A
:100650000220B41E756E10756B0222E4F56B22D277
:10066000B2D2B3C2B5C2B430B20830B305E4F56B50
:02067000F56D26
:010672002265
:0906FB00017000017100016F00A3
:100A5100E4FEC297EF1392A3EFC313FFD2970EBE2A
:020A610008F09B
:010A63002270
:100A3D00C29300C29700D29300120A51AF05120A59
:040A4D0051C29322DD
:1008CD00E4FDC29300C29700D29300120A51E4FFD7
:1008DD00C297EDC313FD30A303430580D2970FBF1D
:1008ED0008EEC29300C29700D29700C2A300D2A314
:0308FD0000AF0544
:0109000022D4
:1009D0008D82AD077F84120A3DAD827F82120A3D6F
:0709E000AD037F80020A3D18
:1009FD007F851208CD8F707F831208CD8F717F8117
:060A0D001208CD8F6F22DC
:04099C007F057E0055
:1009A000EF1FAA0670011E4A600BE4FDEDD3940C04
:0509B00050EE0D80F780
:0109B500221F
:02097E00A907C7
:10098000E4FBC294E913929412099CD294E9C31334
:0C099000F90BBB08ED7F057E000209A0FA
:1009B600E4FBC294ECC313FCD2943094034304804A
:0909C60012099C0BBB08EBAF0405
:0109CF002205
:10093100C205D2947F0C7E001209A0C2947F507E22
:10094100001209A0D2947F0A7E001209A0A29492FB
:060951000512099CA2053D
:01095700227D
:10087600E4FFFEF508F5091209317FCC12097E7FE7
:100886004412097E7FC87E001209A01209317FCC6E
:1008960012097E7FBE12097E1209B67508008F09FD
:1008A6001209B6EF4508FEE509FFFDAC06E41202A3
:1008B60021E4FBFA7920783F120116E4FBFAF97875
:0708C6003F12002502025A57
:10001E000202C6E86480F8E933E83360110460F048
:10002E00ED33EC337009E8FCE9FDEAFEEBFF220448
:10003E0060DED3EB9FEA9EE99DE8C2E78CF0C2F743
:10004E0095F0400CE8CCF8E9CDF9EACEFAEBCFFB0F
:10005E0012029185D0F05804700320D5B3E80470D5
:10006E00075002B2D50202D092D5EC0460F7E4CC70
:10007E00C0E0C398F8603B94186008400DD0E0FBD8
:10008E000202A8E4FBFAC9FC8028E830E406E4C9C1
:10009E00FBE4CAFCE830E305E4C9CACBFCE854072C
:1000AE006010F8C3E913F9EA13FAEB13FBEC13FC37
:1000BE00D8F130F52FC3E49CFCEF9BFFEE9AFEEDDA
:1000CE0099FDD0E0FBEF4E4D4C701222DB03020285
:1000DE00CDEC2CFCEF33FFEE33FEED33FDED30E7D0
:1000EE00EB0202A8EF2BFFEE3AFEED39FDD0E0FB5E
:1000FE0050130BBB00030202D0ED13FDEE13FEEF07
:08010E0013FFEC13FC0202A830
:10011600EC4D6011E8497017ED33EC3304600DE4E3
:10012600FCFFFEFD22E933E8330470F80202C61232
:10013600029158046009E4CC248150062850090233
:1001460002D02840030202CDC0E0EB4A7044B980D9
:1001560006D0E0FB0202BCEF4E701CBD8008EBFF30
:10016600EAFEE9FD80EBE98DF0A4FEE5F00201FF71
:10017600E9CDF9EAFEEBFFEF89F0A4FCE5F0CE89C4
:10018600F0A42EFFE435F0CD89F0A42DFEE435F081
:100196008067EF4E7005BD80D780C3EF8BF0A4ACAF
:1001A600F0EE8BF0A42CFCE435F0F8EF8AF0A42CEA
:1001B600E5F038FCE433CB8DF0A42CFCE5F03BF8FD
:1001C600EE8AF0A42CFCE5F038F8E433CF89F0A4ED
:1001D6002CFCE5F038CF3400CE89F0A42FFFE5F0F3
:1001E6003EFEE433C98DF0A42EFEE5F039CD8AF04B
:1001F600A42FFFE5F03EFEE43DFD33D0E0FB5007C3
:100206000BBB000F0202D0EC2CFCEF33FFEE33FEEB
:06021600ED33FD0202A819
:10021C0075F020800E75F010800575F0087D007E5D
:10022C00007F003392D530D503120330EC334010ED
:10023C00EF33FFEE33FEED33FDEC33FCD5F0ED2266
:0E024C00E5F0247EA2D513CC92E7CDCEFF22A2
:10025A00EDD2E7CD33EC3392D524814006E4FFFE9C
:10026A00FDFC22FCE4CFCECDCC24E0501174FF80FB
:10027A00EDC3CC13CCCD13CDCE13CECF13CF047098
:07028A00F030D5DE02033065
:10029100E9D2E7C933E833F892D5EDD2E7CD33ECB3
:0702A10033FC5002B2D5222C
:1002A800EC30E7100FBF000C0EBE00080DBD0004B7
:1002B8000BEB6014A2D5EB13FCED92E7FD2274FF63
:1002C800FCFDFEFF22E480F8A2D574FF13FC7D80BC
:0302D800E480EFD0
:03000000020705EF
:0C070500787FE4F6D8FD75817102074C86
:1002DB00BC000BBE0029EF8DF084FFADF022E4CC07
:1002EB00F875F008EF2FFFEE33FEEC33FCEE9DECD0
:1002FB00984005FCEE9DFE0FD5F0E9E4CEFD22ED16
:10030B00F8F5F0EE8420D21CFEADF075F008EF2F5F
:10031B00FFED33FD4007985006D5F0F222C398FD50
:05032B000FD5F0EA22ED
:0E033000C3E49FFFE49EFEE49DFDE49CFC22DE
:1007110002033EE493A3F8E493A34003F68001F2BD
:1007210008DFF48029E493A3F85407240CC8C333E9
:10073100C4540F4420C8834004F456800146F6DFB8
:10074100E4800B0102040810204080900673E47ECF
:10075100019360BCA3FF543F30E509541FFEE493AD
:10076100A360010ECF54C025E060A840B8E493A374
:10077100FAE493A3F8E493A3C8C582C8CAC583CA9F
:10078100F0A3C8C582C8CAC583CADFE9DEE780BE57
:0107040000F4
:00000001FF
